{
	"contracts/FundMe.sol": {
		"FundMe": {
			"abi": [
				{
					"inputs": [],
					"name": "fund",
					"outputs": [],
					"stateMutability": "payable",
					"type": "function"
				},
				{
					"inputs": [],
					"name": "number",
					"outputs": [
						{
							"internalType": "uint256",
							"name": "",
							"type": "uint256"
						}
					],
					"stateMutability": "view",
					"type": "function"
				}
			],
			"devdoc": {
				"kind": "dev",
				"methods": {},
				"version": 1
			},
			"evm": {
				"assembly": "    /* \"contracts/FundMe.sol\":63:377  contract FundMe {... */\n  mstore(0x40, 0x80)\n  callvalue\n  dup1\n  iszero\n  tag_1\n  jumpi\n  0x00\n  dup1\n  revert\ntag_1:\n  pop\n  dataSize(sub_0)\n  dup1\n  dataOffset(sub_0)\n  0x00\n  codecopy\n  0x00\n  return\nstop\n\nsub_0: assembly {\n        /* \"contracts/FundMe.sol\":63:377  contract FundMe {... */\n      mstore(0x40, 0x80)\n      jumpi(tag_1, lt(calldatasize, 0x04))\n      shr(0xe0, calldataload(0x00))\n      dup1\n      0x8381f58a\n      eq\n      tag_2\n      jumpi\n      dup1\n      0xb60d4288\n      eq\n      tag_3\n      jumpi\n    tag_1:\n      0x00\n      dup1\n      revert\n        /* \"contracts/FundMe.sol\":86:107  uint256 public number */\n    tag_2:\n      callvalue\n      dup1\n      iszero\n      tag_4\n      jumpi\n      0x00\n      dup1\n      revert\n    tag_4:\n      pop\n      tag_5\n      tag_6\n      jump\t// in\n    tag_5:\n      mload(0x40)\n      tag_7\n      swap2\n      swap1\n      tag_8\n      jump\t// in\n    tag_7:\n      mload(0x40)\n      dup1\n      swap2\n      sub\n      swap1\n      return\n        /* \"contracts/FundMe.sol\":114:371  function fund() public payable  {... */\n    tag_3:\n      tag_9\n      tag_10\n      jump\t// in\n    tag_9:\n      stop\n        /* \"contracts/FundMe.sol\":86:107  uint256 public number */\n    tag_6:\n      sload(0x00)\n      dup2\n      jump\t// out\n        /* \"contracts/FundMe.sol\":114:371  function fund() public payable  {... */\n    tag_10:\n        /* \"contracts/FundMe.sol\":241:242  5 */\n      0x05\n        /* \"contracts/FundMe.sol\":232:238  number */\n      0x00\n        /* \"contracts/FundMe.sol\":232:242  number = 5 */\n      dup2\n      swap1\n      sstore\n      pop\n        /* \"contracts/FundMe.sol\":273:277  1e18 */\n      0x0de0b6b3a7640000\n        /* \"contracts/FundMe.sol\":261:270  msg.value */\n      callvalue\n        /* \"contracts/FundMe.sol\":261:277  msg.value > 1e18 */\n      gt\n        /* \"contracts/FundMe.sol\":253:311  require(msg.value > 1e18 , \"Not enough please send more!\") */\n      tag_12\n      jumpi\n      mload(0x40)\n      0x08c379a000000000000000000000000000000000000000000000000000000000\n      dup2\n      mstore\n      0x04\n      add\n      tag_13\n      swap1\n      tag_14\n      jump\t// in\n    tag_13:\n      mload(0x40)\n      dup1\n      swap2\n      sub\n      swap1\n      revert\n    tag_12:\n        /* \"contracts/FundMe.sol\":114:371  function fund() public payable  {... */\n      jump\t// out\n        /* \"#utility.yul\":7:84   */\n    tag_15:\n        /* \"#utility.yul\":44:51   */\n      0x00\n        /* \"#utility.yul\":73:78   */\n      dup2\n        /* \"#utility.yul\":62:78   */\n      swap1\n      pop\n        /* \"#utility.yul\":7:84   */\n      swap2\n      swap1\n      pop\n      jump\t// out\n        /* \"#utility.yul\":90:208   */\n    tag_16:\n        /* \"#utility.yul\":177:201   */\n      tag_23\n        /* \"#utility.yul\":195:200   */\n      dup2\n        /* \"#utility.yul\":177:201   */\n      tag_15\n      jump\t// in\n    tag_23:\n        /* \"#utility.yul\":172:175   */\n      dup3\n        /* \"#utility.yul\":165:202   */\n      mstore\n        /* \"#utility.yul\":90:208   */\n      pop\n      pop\n      jump\t// out\n        /* \"#utility.yul\":214:436   */\n    tag_8:\n        /* \"#utility.yul\":307:311   */\n      0x00\n        /* \"#utility.yul\":345:347   */\n      0x20\n        /* \"#utility.yul\":334:343   */\n      dup3\n        /* \"#utility.yul\":330:348   */\n      add\n        /* \"#utility.yul\":322:348   */\n      swap1\n      pop\n        /* \"#utility.yul\":358:429   */\n      tag_25\n        /* \"#utility.yul\":426:427   */\n      0x00\n        /* \"#utility.yul\":415:424   */\n      dup4\n        /* \"#utility.yul\":411:428   */\n      add\n        /* \"#utility.yul\":402:408   */\n      dup5\n        /* \"#utility.yul\":358:429   */\n      tag_16\n      jump\t// in\n    tag_25:\n        /* \"#utility.yul\":214:436   */\n      swap3\n      swap2\n      pop\n      pop\n      jump\t// out\n        /* \"#utility.yul\":442:611   */\n    tag_17:\n        /* \"#utility.yul\":526:537   */\n      0x00\n        /* \"#utility.yul\":560:566   */\n      dup3\n        /* \"#utility.yul\":555:558   */\n      dup3\n        /* \"#utility.yul\":548:567   */\n      mstore\n        /* \"#utility.yul\":600:604   */\n      0x20\n        /* \"#utility.yul\":595:598   */\n      dup3\n        /* \"#utility.yul\":591:605   */\n      add\n        /* \"#utility.yul\":576:605   */\n      swap1\n      pop\n        /* \"#utility.yul\":442:611   */\n      swap3\n      swap2\n      pop\n      pop\n      jump\t// out\n        /* \"#utility.yul\":617:795   */\n    tag_18:\n        /* \"#utility.yul\":757:787   */\n      0x4e6f7420656e6f75676820706c656173652073656e64206d6f72652100000000\n        /* \"#utility.yul\":753:754   */\n      0x00\n        /* \"#utility.yul\":745:751   */\n      dup3\n        /* \"#utility.yul\":741:755   */\n      add\n        /* \"#utility.yul\":734:788   */\n      mstore\n        /* \"#utility.yul\":617:795   */\n      pop\n      jump\t// out\n        /* \"#utility.yul\":801:1167   */\n    tag_19:\n        /* \"#utility.yul\":943:946   */\n      0x00\n        /* \"#utility.yul\":964:1031   */\n      tag_29\n        /* \"#utility.yul\":1028:1030   */\n      0x1c\n        /* \"#utility.yul\":1023:1026   */\n      dup4\n        /* \"#utility.yul\":964:1031   */\n      tag_17\n      jump\t// in\n    tag_29:\n        /* \"#utility.yul\":957:1031   */\n      swap2\n      pop\n        /* \"#utility.yul\":1040:1133   */\n      tag_30\n        /* \"#utility.yul\":1129:1132   */\n      dup3\n        /* \"#utility.yul\":1040:1133   */\n      tag_18\n      jump\t// in\n    tag_30:\n        /* \"#utility.yul\":1158:1160   */\n      0x20\n        /* \"#utility.yul\":1153:1156   */\n      dup3\n        /* \"#utility.yul\":1149:1161   */\n      add\n        /* \"#utility.yul\":1142:1161   */\n      swap1\n      pop\n        /* \"#utility.yul\":801:1167   */\n      swap2\n      swap1\n      pop\n      jump\t// out\n        /* \"#utility.yul\":1173:1592   */\n    tag_14:\n        /* \"#utility.yul\":1339:1343   */\n      0x00\n        /* \"#utility.yul\":1377:1379   */\n      0x20\n        /* \"#utility.yul\":1366:1375   */\n      dup3\n        /* \"#utility.yul\":1362:1380   */\n      add\n        /* \"#utility.yul\":1354:1380   */\n      swap1\n      pop\n        /* \"#utility.yul\":1426:1435   */\n      dup2\n        /* \"#utility.yul\":1420:1424   */\n      dup2\n        /* \"#utility.yul\":1416:1436   */\n      sub\n        /* \"#utility.yul\":1412:1413   */\n      0x00\n        /* \"#utility.yul\":1401:1410   */\n      dup4\n        /* \"#utility.yul\":1397:1414   */\n      add\n        /* \"#utility.yul\":1390:1437   */\n      mstore\n        /* \"#utility.yul\":1454:1585   */\n      tag_32\n        /* \"#utility.yul\":1580:1584   */\n      dup2\n        /* \"#utility.yul\":1454:1585   */\n      tag_19\n      jump\t// in\n    tag_32:\n        /* \"#utility.yul\":1446:1585   */\n      swap1\n      pop\n        /* \"#utility.yul\":1173:1592   */\n      swap2\n      swap1\n      pop\n      jump\t// out\n\n    auxdata: 0xa2646970667358221220642e2c3fa80f2bf2fb874fdb39016bd2e0756e1079b1eb77b67e70bfa4c34a1d64736f6c63430008120033\n}\n",
				"bytecode": {
					"linkReferences": {},
					"object": "608060405234801561001057600080fd5b506101a4806100206000396000f3fe6080604052600436106100295760003560e01c80638381f58a1461002e578063b60d428814610059575b600080fd5b34801561003a57600080fd5b50610043610063565b60405161005091906100d6565b60405180910390f35b610061610069565b005b60005481565b6005600081905550670de0b6b3a764000034116100bb576040517f08c379a00000000000000000000000000000000000000000000000000000000081526004016100b29061014e565b60405180910390fd5b565b6000819050919050565b6100d0816100bd565b82525050565b60006020820190506100eb60008301846100c7565b92915050565b600082825260208201905092915050565b7f4e6f7420656e6f75676820706c656173652073656e64206d6f72652100000000600082015250565b6000610138601c836100f1565b915061014382610102565b602082019050919050565b600060208201905081810360008301526101678161012b565b905091905056fea2646970667358221220642e2c3fa80f2bf2fb874fdb39016bd2e0756e1079b1eb77b67e70bfa4c34a1d64736f6c63430008120033",
					"opcodes": "PUSH1 0x80 PUSH1 0x40 MSTORE CALLVALUE DUP1 ISZERO PUSH2 0x10 JUMPI PUSH1 0x0 DUP1 REVERT JUMPDEST POP PUSH2 0x1A4 DUP1 PUSH2 0x20 PUSH1 0x0 CODECOPY PUSH1 0x0 RETURN INVALID PUSH1 0x80 PUSH1 0x40 MSTORE PUSH1 0x4 CALLDATASIZE LT PUSH2 0x29 JUMPI PUSH1 0x0 CALLDATALOAD PUSH1 0xE0 SHR DUP1 PUSH4 0x8381F58A EQ PUSH2 0x2E JUMPI DUP1 PUSH4 0xB60D4288 EQ PUSH2 0x59 JUMPI JUMPDEST PUSH1 0x0 DUP1 REVERT JUMPDEST CALLVALUE DUP1 ISZERO PUSH2 0x3A JUMPI PUSH1 0x0 DUP1 REVERT JUMPDEST POP PUSH2 0x43 PUSH2 0x63 JUMP JUMPDEST PUSH1 0x40 MLOAD PUSH2 0x50 SWAP2 SWAP1 PUSH2 0xD6 JUMP JUMPDEST PUSH1 0x40 MLOAD DUP1 SWAP2 SUB SWAP1 RETURN JUMPDEST PUSH2 0x61 PUSH2 0x69 JUMP JUMPDEST STOP JUMPDEST PUSH1 0x0 SLOAD DUP2 JUMP JUMPDEST PUSH1 0x5 PUSH1 0x0 DUP2 SWAP1 SSTORE POP PUSH8 0xDE0B6B3A7640000 CALLVALUE GT PUSH2 0xBB JUMPI PUSH1 0x40 MLOAD PUSH32 0x8C379A000000000000000000000000000000000000000000000000000000000 DUP2 MSTORE PUSH1 0x4 ADD PUSH2 0xB2 SWAP1 PUSH2 0x14E JUMP JUMPDEST PUSH1 0x40 MLOAD DUP1 SWAP2 SUB SWAP1 REVERT JUMPDEST JUMP JUMPDEST PUSH1 0x0 DUP2 SWAP1 POP SWAP2 SWAP1 POP JUMP JUMPDEST PUSH2 0xD0 DUP2 PUSH2 0xBD JUMP JUMPDEST DUP3 MSTORE POP POP JUMP JUMPDEST PUSH1 0x0 PUSH1 0x20 DUP3 ADD SWAP1 POP PUSH2 0xEB PUSH1 0x0 DUP4 ADD DUP5 PUSH2 0xC7 JUMP JUMPDEST SWAP3 SWAP2 POP POP JUMP JUMPDEST PUSH1 0x0 DUP3 DUP3 MSTORE PUSH1 0x20 DUP3 ADD SWAP1 POP SWAP3 SWAP2 POP POP JUMP JUMPDEST PUSH32 0x4E6F7420656E6F75676820706C656173652073656E64206D6F72652100000000 PUSH1 0x0 DUP3 ADD MSTORE POP JUMP JUMPDEST PUSH1 0x0 PUSH2 0x138 PUSH1 0x1C DUP4 PUSH2 0xF1 JUMP JUMPDEST SWAP2 POP PUSH2 0x143 DUP3 PUSH2 0x102 JUMP JUMPDEST PUSH1 0x20 DUP3 ADD SWAP1 POP SWAP2 SWAP1 POP JUMP JUMPDEST PUSH1 0x0 PUSH1 0x20 DUP3 ADD SWAP1 POP DUP2 DUP2 SUB PUSH1 0x0 DUP4 ADD MSTORE PUSH2 0x167 DUP2 PUSH2 0x12B JUMP JUMPDEST SWAP1 POP SWAP2 SWAP1 POP JUMP INVALID LOG2 PUSH5 0x6970667358 0x22 SLT KECCAK256 PUSH5 0x2E2C3FA80F 0x2B CALLCODE 0xFB DUP8 0x4F 0xDB CODECOPY ADD PUSH12 0xD2E0756E1079B1EB77B67E70 0xBF LOG4 0xC3 0x4A SAR PUSH5 0x736F6C6343 STOP ADDMOD SLT STOP CALLER "
				},
				"gasEstimates": {
					"creation": {
						"codeDepositCost": "84000",
						"executionCost": "135",
						"totalCost": "84135"
					},
					"external": {
						"fund()": "22545",
						"number()": "2407"
					}
				},
				"methodIdentifiers": {
					"fund()": "b60d4288",
					"number()": "8381f58a"
				}
			},
			"storageLayout": {
				"storage": [
					{
						"astId": 3,
						"contract": "contracts/FundMe.sol:FundMe",
						"label": "number",
						"offset": 0,
						"slot": "0",
						"type": "t_uint256"
					}
				],
				"types": {
					"t_uint256": {
						"encoding": "inplace",
						"label": "uint256",
						"numberOfBytes": "32"
					}
				}
			},
			"userdoc": {
				"kind": "user",
				"methods": {},
				"version": 1
			}
		}
	}
}